:020000040800F2
:1000000000500020A93700087D2800088528000836
:100010008D280008952800089D2800080000000091
:10002000000000000000000000000000A5280008FB
:10003000B128000800000000BD280008C9280008F9
:10004000F1370008F1370008F1370008F1370008F0
:10005000F1370008F1370008D1120008F137000825
:10006000F1370008F1370008F1370008F1370008D0
:10007000F1370008F1370008F1370008F1370008C0
:10008000F1370008F1370008F1370008F1370008B0
:10009000F1370008F1370008F1370008F1370008A0
:1000A000F1370008F1370008F1370008F137000890
:1000B000F1370008F137000829130008F13700086C
:1000C000F1370008F1370008F1370008F137000870
:1000D000F137000809300008F1370008F13700084F
:1000E000F1370008F1370008F13700080000000080
:1000F0000000000000000000000000000000000000
:0C01000000000000000000005FF808F1A3
:1001100010B5054C237833B9044B13B10448AFF341
:1001200000800123237010BDD401002000000000D6
:10013000987D000808B5034B1BB103490348AFF392
:10014000008008BD00000000D8010020987D000854
:10015000034613F8012B002AFBD1181A0138704707
:1001600081F0004102E000BF83F0004330B54FEA68
:1001700041044FEA430594EA050F08BF90EA020FD5
:100180001FBF54EA000C55EA020C7FEA645C7FEA68
:10019000655C00F0E2804FEA5454D4EB5555B8BF8B
:1001A0006D420CDD2C4480EA020281EA030382EAFC
:1001B000000083EA010180EA020281EA0303362D8E
:1001C00088BF30BD11F0004F4FEA01314FF4801C61
:1001D0004CEA113102D0404261EB410113F0004F73
:1001E0004FEA03334CEA133302D0524263EB43032A
:1001F00094EA050F00F0A780A4F10104D5F1200EC8
:100200000DDB02FA0EFC22FA05F2801841F1000122
:1002100003FA0EF2801843FA05F359410EE0A5F1F6
:1002200020050EF1200E012A03FA0EFC28BF4CF027
:10023000020C43FA05F3C01851EBE37101F00045DD
:1002400007D54FF0000EDCF1000C7EEB00006EEBEA
:100250000101B1F5801F1BD3B1F5001F0CD3490874
:100260005FEA30004FEA3C0C04F101044FEA4452CB
:1002700012F5800F80F09A80BCF1004F08BF5FEA52
:10028000500C50F1000041EB045141EA050130BD32
:100290005FEA4C0C404141EB0101013C28BFB1F544
:1002A000801FE9D291F0000F04BF01460020B1FA8F
:1002B00081F308BF2033A3F10B03B3F120020CDA62
:1002C0000C3208DD02F1140CC2F10C0201FA0CF040
:1002D00021FA02F10CE002F11402D8BFC2F1200CA5
:1002E00001FA02F120FA0CFCDCBF41EA0C0190405B
:1002F000E41AA2BF01EB0451294330BD6FEA0404A4
:100300001F3C1CDA0C340EDC04F11404C4F120028E
:1003100020FA04F001FA02F340EA030021FA04F3A0
:1003200045EA030130BDC4F10C04C4F1200220FAF7
:1003300002F001FA04F340EA0300294630BD21FA35
:1003400004F0294630BD94F0000F83F4801306BFFB
:1003500081F480110134013D4EE77FEA645C18BFEF
:100360007FEA655C29D094EA050F08BF90EA020F86
:1003700005D054EA000C04BF1946104630BD91EA7E
:10038000030F1EBF0021002030BD5FEA545C05D181
:100390004000494128BF41F0004130BD14F58004C0
:1003A0003CBF01F5801130BD01F0004545F0FE4134
:1003B00041F470014FF0000030BD7FEA645C1ABF69
:1003C000194610467FEA655C1CBF0B46024650EAA0
:1003D000013406BF52EA033591EA030F41F40021CC
:1003E00030BD00BF90F0000F04BF0021704730B552
:1003F0004FF4806404F132044FF000054FF0000127
:1004000050E700BF90F0000F04BF0021704730B5E7
:100410004FF4806404F1320410F0004548BF4042BC
:100420004FF000013EE700BF42004FEAE2014FEA11
:1004300031014FEA02701FBF12F07F4393F07F4FEC
:1004400081F06051704732F07F4208BF704793F0EF
:100450007F4F04BF41F40021704730B54FF4607402
:1004600001F0004521F000411CE700BF50EA010205
:1004700008BF704730B54FF000050AE050EA0102AE
:1004800008BF704730B511F0004502D5404261EB1E
:1004900041014FF4806404F132045FEA915C3FF45F
:1004A000D8AE4FF003025FEADC0C18BF03325FEAFC
:1004B000DC0C18BF033202EBDC02C2F1200300FAAD
:1004C00003FC20FA02F001FA03FE40EA0E0021FAD2
:1004D00002F11444BDE600BF70B54FF0FF0C4CF4C0
:1004E000E06C1CEA11541DBF1CEA135594EA0C0F72
:1004F00095EA0C0F00F0DEF82C4481EA030621EAAD
:100500004C5123EA4C5350EA013518BF52EA0335E7
:1005100041F4801143F4801338D0A0FB02CE4FF099
:100520000005E1FB02E506F00042E0FB03E54FF0C9
:100530000006E1FB03569CF0000F18BF4EF0010EC1
:10054000A4F1FF04B6F5007F64F5407404D25FEABD
:100550004E0E6D4146EB060642EAC62141EA555170
:100560004FEAC52040EA5E504FEACE2EB4F1FD0CB2
:1005700088BFBCF5E06F1ED8BEF1004F08BF5FEA30
:10058000500E50F1000041EB045170BD06F00046E2
:1005900046EA010140EA020081EA0301B4EB5C048F
:1005A000C2BFD4EB0C0541EA045170BD41F4801187
:1005B0004FF0000E013C00F3AB8014F1360FDEBFAC
:1005C000002001F0004170BDC4F10004203C35DA88
:1005D0000C341BDC04F11404C4F1200500FA05F30B
:1005E00020FA04F001FA05F240EA020001F00042AC
:1005F00021F0004110EBD37021FA04F642EB060122
:100600005EEA430E08BF20EAD37070BDC4F10C044B
:10061000C4F1200500FA04F320FA05F001FA04F20F
:1006200040EA020001F0004110EBD37041F10001FB
:100630005EEA430E08BF20EAD37070BDC4F1200506
:1006400000FA05F24EEA020E20FA04F301FA05F26E
:1006500043EA020321FA04F001F0004121FA04F216
:1006600020EA020000EBD3705EEA430E08BF20EAE6
:10067000D37070BD94F0000F0FD101F00046400020
:1006800041EB010111F4801F08BF013CF7D041EAA2
:10069000060195F0000F18BF704703F000465200A6
:1006A00043EB030313F4801F08BF013DF7D043EA77
:1006B0000603704794EA0C0F0CEA135518BF95EA2D
:1006C0000C0F0CD050EA410618BF52EA4306D1D1B4
:1006D00081EA030101F000414FF0000070BD50EAD3
:1006E000410606BF1046194652EA430619D094EA5D
:1006F0000C0F02D150EA013613D195EA0C0F05D147
:1007000052EA03361CBF104619460AD181EA03019A
:1007100001F0004141F0FE4141F470014FF0000052
:1007200070BD41F0FE4141F4780170BD70B54FF0ED
:10073000FF0C4CF4E06C1CEA11541DBF1CEA13556D
:1007400094EA0C0F95EA0C0F00F0A7F8A4EB05044F
:1007500081EA030E52EA03354FEA013100F0888046
:100760004FEA03334FF0805545EA131343EA12630F
:100770004FEA022245EA111545EA10654FEA0026C4
:100780000EF000419D4208BF964244F1FD0404F57D
:10079000407402D25B084FEA3202B61A65EB0305D9
:1007A0005B084FEA32024FF480104FF4002CB6EB96
:1007B000020E75EB030E22BFB61A754640EA0C0016
:1007C0005B084FEA3202B6EB020E75EB030E22BF56
:1007D000B61A754640EA5C005B084FEA3202B6EB97
:1007E000020E75EB030E22BFB61A754640EA9C0056
:1007F0005B084FEA3202B6EB020E75EB030E22BF26
:10080000B61A754640EADC0055EA060E18D04FEAE3
:10081000051545EA16754FEA06164FEAC30343EA83
:1008200052734FEAC2025FEA1C1CC0D111F4801F50
:100830000BD141EA00014FF000004FF0004CB6E749
:1008400011F4801F04BF01430020B4F1FD0C88BFE8
:10085000BCF5E06F3FF6AFAEB5EB030C04BFB6EBF3
:10086000020C5FEA500C50F1000041EB045170BDE6
:100870000EF0004E4EEA113114EB5C04C2BFD4EB13
:100880000C0541EA045170BD41F480114FF0000E97
:10089000013C90E645EA060E8DE60CEA135594EA13
:1008A0000C0F08BF95EA0C0F3FF43BAF94EA0C0F16
:1008B0000AD150EA01347FF434AF95EA0C0F7FF48B
:1008C00025AF104619462CE795EA0C0F06D152EADF
:1008D00003353FF4FDAE1046194622E750EA4106C3
:1008E00018BF52EA43067FF4C5AE50EA41047FF4D4
:1008F0000DAF52EA43057FF4EBAE12E74FF0FF3C39
:1009000006E000BF4FF0010C02E000BF4FF0010C09
:100910004DF804CD4FEA410C7FEA6C5C4FEA430C82
:1009200018BF7FEA6C5C1BD001B050EA410C0CBFD1
:1009300052EA430C91EA030F02BF90EA020F002033
:10094000704710F1000F91EA030F58BF994208BF9A
:1009500090422CBFD8176FEAE37040F00100704757
:100960004FEA410C7FEA6C5C02D150EA013C07D1AE
:100970004FEA430C7FEA6C5CD6D152EA033CD3D0F9
:100980005DF8040B704700BF8446104662468C46F3
:100990001946634600E000BF01B5FFF7B7FF002826
:1009A00048BF10F1000F01BD4DF808EDFFF7F4FF4F
:1009B0000CBF012000205DF808FB00BF4DF808EDDA
:1009C000FFF7EAFF34BF012000205DF808FB00BFFD
:1009D0004DF808EDFFF7E0FF94BF012000205DF81F
:1009E00008FB00BF4DF808EDFFF7CEFF94BF0120D4
:1009F00000205DF808FB00BF4DF808EDFFF7C4FFCD
:100A000034BF012000205DF808FB00BF4FEA410C15
:100A10007FEA6C5C02D150EA013C0AD14FEA430CF8
:100A20007FEA6C5C02D152EA033C02D14FF0000035
:100A300070474FF0010070474FEA410212F5001273
:100A400015D211D56FF47873B3EB625212D94FEA15
:100A5000C12343F0004343EA505311F0004F23FAFF
:100A600002F018BF404270474FF00000704750EA54
:100A7000013005D111F0004008BF6FF00040704711
:100A80004FF00000704700BF4A0011D212F500126B
:100A900011D20DD56FF47873B3EB62520ED44FEAD6
:100AA000C12343F0004343EA505323FA02F0704756
:100AB0004FF00000704750EA013002D14FF0FF3094
:100AC00070474FF00000704780F0004002E000BF28
:100AD00081F0004142001FBF5FEA410392EA030F29
:100AE0007FEA226C7FEA236C6AD04FEA1262D2EB73
:100AF0001363C1BFD218414048404140B8BF5B4278
:100B0000192B88BF704710F0004F40F4000020F010
:100B10007F4018BF404211F0004F41F4000121F026
:100B20007F4118BF494292EA030F3FD0A2F1010270
:100B300041FA03FC10EB0C00C3F1200301FA03F1AE
:100B400000F0004302D5494260EB4000B0F5000FD1
:100B500013D3B0F1807F06D340084FEA310102F190
:100B60000102FE2A51D2B1F1004F40EBC25008BF42
:100B700020F0010040EA03007047490040EB00000C
:100B8000013A28BFB0F5000FEDD2B0FA80FCACF10D
:100B9000080CB2EB0C0200FA0CF0AABF00EBC2503A
:100BA00052421843BCBFD0401843704792F0000F28
:100BB00081F4000106BF80F400000132013BB5E77B
:100BC0004FEA41037FEA226C18BF7FEA236C21D0F1
:100BD00092EA030F04D092F0000F08BF0846704756
:100BE00090EA010F1CBF0020704712F07F4F04D124
:100BF000400028BF40F00040704712F100723CBF37
:100C000000F50000704700F0004343F0FE4040F460
:100C1000000070477FEA226216BF08467FEA23631E
:100C20000146420206BF5FEA412390EA010F40F409
:100C3000800070474FF0000304E000BF10F0004355
:100C400048BF40425FEA000C08BF704743F096433C
:100C500001464FF000001CE050EA010208BF704757
:100C60004FF000030AE000BF50EA010208BF7047DE
:100C700011F0004302D5404261EB41015FEA010CF3
:100C800002BF84460146002043F0B64308BFA3F1EB
:100C90008053A3F50003BCFA8CF2083AA3EBC253CD
:100CA00010DB01FA02FC634400FA02FCC2F12002EC
:100CB000BCF1004F20FA02F243EB020008BF20F023
:100CC0000100704702F1200201FA02FCC2F1200289
:100CD00050EA4C0021FA02F243EB020008BF20EA7E
:100CE000DC7070474FF0FF0C1CEAD0521EBF1CEAAC
:100CF000D15392EA0C0F93EA0C0F6FD01A4480EA9A
:100D0000010C400218BF5FEA41211ED04FF0006382
:100D100043EA501043EA5111A0FB01310CF00040AE
:100D2000B1F5000F3EBF490041EAD3715B0040EAD4
:100D3000010062F17F02FD2A1DD8B3F1004F40EBA4
:100D4000C25008BF20F00100704790F0000F0CF077
:100D5000004C08BF49024CEA502040EA51207F3A3B
:100D6000C2BFD2F1FF0340EAC250704740F4000016
:100D70004FF00003013A5DDC12F1190FDCBF00F007
:100D800000407047C2F10002410021FA02F1C2F1B5
:100D9000200200FA02FC5FEA310040F1000053EA51
:100DA0004C0308BF20EADC70704792F0000F00F09F
:100DB000004C02BF400010F4000F013AF9D040EAA5
:100DC0000C0093F0000F01F0004C02BF490011F439
:100DD000000F013BF9D041EA0C018FE70CEAD15337
:100DE00092EA0C0F18BF93EA0C0F0AD030F0004CB7
:100DF00018BF31F0004CD8D180EA010000F000406B
:100E0000704790F0000F17BF90F0004F084691F028
:100E1000000F91F0004F14D092EA0C0F01D1420262
:100E20000FD193EA0C0F03D14B0218BF084608D12B
:100E300080EA010000F0004040F0FE4040F4000075
:100E4000704740F0FE4040F4400070474FF0FF0C08
:100E50001CEAD0521EBF1CEAD15392EA0C0F93EA4F
:100E60000C0F69D0A2EB030280EA010C49024FEAA1
:100E7000402037D04FF0805343EA111143EA10135A
:100E80000CF000408B4238BF5B0042F17D024FF412
:100E9000000C8B4224BF5B1A40EA0C00B3EB510FED
:100EA00024BFA3EB510340EA5C00B3EB910F24BFD6
:100EB000A3EB910340EA9C00B3EBD10F24BFA3EB5B
:100EC000D10340EADC001B0118BF5FEA1C1CE0D123
:100ED000FD2A3FF650AF8B4240EBC25008BF20F0D6
:100EE000010070470CF0004C4CEA50207F32C2BF2A
:100EF000D2F1FF0340EAC250704740F400004FF0C7
:100F00000003013A37E792F0000F00F0004C02BFF7
:100F1000400010F4000F013AF9D040EA0C0093F0C1
:100F2000000F01F0004C02BF490011F4000F013B1B
:100F3000F9D041EA0C0195E70CEAD15392EA0C0F83
:100F400008D142027FF47DAF93EA0C0F7FF470AFBB
:100F5000084676E793EA0C0F04D14B023FF44CAFFE
:100F600008466EE730F0004C18BF31F0004CCAD193
:100F700030F000427FF45CAF31F000437FF43CAFCF
:100F80005FE700BF4FF0FF3C06E000BF4FF0010CF1
:100F900002E000BF4FF0010C4DF804CD4FEA4002D3
:100FA0004FEA41037FEA226C18BF7FEA236C11D01D
:100FB00001B052EA530C18BF90EA010F58BFB2EBD0
:100FC000030088BFC81738BF6FEAE17018BF40F050
:100FD000010070477FEA226C02D15FEA402C05D104
:100FE0007FEA236CE4D15FEA412CE1D05DF8040B89
:100FF000704700BF844608466146FFE70FB5FFF71C
:10100000C9FF002848BF10F1000F0FBD4DF808EDD3
:10101000FFF7F4FF0CBF012000205DF808FB00BFC4
:101020004DF808EDFFF7EAFF34BF012000205DF81E
:1010300008FB00BF4DF808EDFFF7E0FF94BF01206B
:1010400000205DF808FB00BF4DF808EDFFF7D2FF68
:1010500094BF012000205DF808FB00BF4DF808EDAB
:10106000FFF7C8FF34BF012000205DF808FB00BF78
:101070004FEA4002B2F1FE4F0FD34FF09E03B3EBA5
:1010800012620DD94FEA002343F0004310F0004FE5
:1010900023FA02F018BF404270474FF0000070473B
:1010A00012F1610F01D1420205D110F0004008BFDA
:1010B0006FF0004070474FF00000704742000ED2C2
:1010C000B2F1FE4F0BD34FF09E03B3EB126209D483
:1010D0004FEA002343F0004323FA02F070474FF039
:1010E0000000704712F1610F01D1420202D14FF0AE
:1010F000FF3070474FF00000704700BF80B483B0EE
:1011000000AF0346FB7197F90730002B0BDBFB792F
:1011100003F01F02064997F907305B09012000FA26
:1011200002F241F8232000BF0C37BD4680BC704757
:1011300000E100E080B500AF224B9B69214A43F0FB
:1011400005039361204B1B681F4A23F00F031360B4
:101150001D4B1B681C4A43F0080313601A4BDB68E5
:10116000194A43F00103D360184B9B68174A23F0D8
:101170000F039360154B154A9B689360144B1B68D3
:10118000134A23F001031360114BDB68104A43F04C
:101190000103D3600E4B9B680D4A23F0010393605B
:1011A0000B4B5B690A4A43F001035361084B1B6810
:1011B000074A43F0010313600620FFF79FFF00BFBB
:1011C00080BD00BF00100240000801400000014047
:1011D0000004014080B400AF034B1B78DBB218461B
:1011E000BD4680BC704700BFF001002080B500AF55
:1011F000164B1B78DBB20133DAB2144B1A70134B67
:101200001B78DBB2022B02D9104B00221A70104857
:1012100001F0E4FE0D4B1B78DBB2022B0ED0022B4B
:1012200010DC002B02D0012B04D00BE0094801F0A8
:10123000D5FE08E0084801F0D1FE04E0074801F0BF
:10124000CDFE00E000BF00BF80BD00BFF001002068
:10125000B07D0008C47D0008DC7D0008EC7D00083E
:1012600080B582B000AF184BDB69174A43F0040326
:10127000D36100237B6002E07B6801337B607B6885
:10128000092BF9DD114B41F61F429A620F4B40F2D8
:10129000F312DA620D4BDB680C4A43F00103D360B2
:1012A0000A4B1B69094A23F001031361074B1B68B2
:1012B000064A23F0010313601E20FFF71FFF00BF43
:1012C0000837BD4680BD00BF001002400008004046
:1012D00080B400AF124B5B6903F00103002B1AD0FE
:1012E0000F4B1B680E4A23F0010313600C4B5B6924
:1012F0000B4A43F0010353610A4B00225A62094B27
:101300001B69084A23F001031361064B1B68054A59
:1013100043F00103136000BFBD4680BC704700BFAF
:10132000000401400008004080B500AF104B1B696D
:1013300003F00103002B19D00D4B1B680C4A23F05E
:10134000010313600B4B9B6803F00103002B01D1D9
:10135000FFF74CFF084B1B68074A43F0010313607B
:10136000034B1B69024A23F00103136100BF80BDD8
:1013700000080040000801400004014080B400AFB4
:101380000F4B9B690E4A43F0080393610D4B1B689A
:101390000C4A23F00F0313600A4B1B68094A43F001
:1013A00004031360074B1B68064A43F001031360F4
:1013B000044B01221A6100BFBD4680BC704700BFCC
:1013C00000100240000C014080B582B000AF002345
:1013D0007B602D4B1B682C4A23F00F0313602A4BB4
:1013E0001B68294A43F004031360274B1B68264AF5
:1013F00043F001031360244B01225A614FF4FA7049
:1014000000F072F9204B1B681F4A23F00F03136092
:101410001D4B1B681C4A43F0080313601A4BDB6822
:10142000194A43F00103D36064233B6002E00120CA
:1014300000F05AF9144B9B6803F00103002B04D011
:101440003B685A1E3A60002BF1D10F4B9B6803F0AA
:101450000103002B13D101237B604FF496733B6093
:1014600002E0012000F040F9074B9B6803F0010304
:10147000002B04D13B685A1E3A60002BF1D17B68E7
:1014800018460837BD4680BD000C014080B582B0CB
:1014900000AF7860264B1B68254A23F00F031360CA
:1014A000234B1B68224A43F004031360204B1B6844
:1014B0001F4A43F0010313601D4B01225A617B68F0
:1014C000002B18D0022000F00FF9194B1B68184AA6
:1014D00023F00F031360164B1B68154A43F00803F3
:1014E0001360134BDB68124A43F00103D3603C20C6
:1014F00000F0FAF817E03C2000F0F6F80C4B1B68FF
:101500000B4A23F00F031360094B1B68084A43F092
:1015100008031360064BDB68054A43F00103D36000
:10152000022000F0E1F800BF0837BD4680BD00BFD3
:10153000000C014080B582B000AF1E4B1B681D4AF5
:1015400023F00F0313601B4B1B681A4A43F004037C
:101550001360184B1B68174A43F001031360154BC7
:1015600001225A61022000F0BFF8124B01221A61D9
:10157000104B1B680F4A23F00F0313600D4B1B68C1
:101580000C4A43F0080313600A4BDB68094A43F036
:101590000103D3600A2000F0A7F8064B9B6803F014
:1015A00001037B60322000F09FF87B681846083703
:1015B000BD4680BD000C014080B584B000AF03463D
:1015C000FB710023FB600BE0FB7903F0010318467D
:1015D000FFF75CFFFB795B08FB71FB680133FB6085
:1015E000FB68072BF0DD00BF00BF1037BD4680BD94
:1015F00080B582B000AF0023FB7100233B600EE09A
:10160000FB795B08FB71FFF795FF0346002B03D0C6
:10161000FB7963F07F03FB713B6801333B603B6800
:10162000072BEDDDFB7918460837BD4680BD00006D
:1016300080B582B000AFFFF7C7FE0346002B01D193
:10164000134B21E0CC20FFF7B7FFBE20FFF7B4FF1C
:10165000FFF7CEFF0346FB71FFF7CAFF0346BB71DE
:10166000BB791BB21B021AB2FB791BB21343BB80BE
:10167000B7F904301846FFF7E1FA03464FF0765108
:101680001846FFF72FFB034618460837BD4680BDB6
:1016900000C079C480B500AFFFF796FE0346002B6B
:1016A00006D0CC20FFF788FF4420FFF785FF00E03D
:1016B00000BF80BD80B400AF094BDB68084A43F02F
:1016C0008073D360074B00225A60064B1B68054AA3
:1016D00043F00103136000BFBD4680BC704700BFEC
:1016E000F0ED00E0001000E080B485B000AF78605D
:1016F0000D4B1B680D4AA2FB03239A0C7B6802FB6F
:1017000003F3FB600A4B5B68BB6000BF084B5A6881
:10171000BB68D31AFA689A42F8D800BF00BF1437E2
:10172000BD4680BC704700BF0000002083DE1B4325
:10173000001000E080B582B000AF786003E04FF4A5
:101740007A70FFF7D1FF7B685A1E7A60002BF6D1C2
:1017500000BF00BF0837BD4680BD000080B483B025
:1017600000AF374B9B69364A43F009039361344B12
:10177000DB69334A43F48003D361324B5B68314AFF
:1017800023F4706353602F4B5B682E4A43F400735D
:1017900053602C4B5B682B4A43F440635360294BE6
:1017A0005B68284A23F470435360264B5B68254AE4
:1017B00043F400535360234B5B68224A43F4404395
:1017C0005360214B1B68204A43F4004313600023FD
:1017D0007B6002E07B6801337B607B68632BF9DD13
:1017E000194B1B68184A23F400431360164B5B68BF
:1017F000154A43F024035360134BB422DA61124BB1
:1018000025221A62104BDB690F4A23F48043D3610F
:101810000D4B1B680C4A23F0C00313600A4B4FF4B6
:1018200080429A60084B1B68074A43F4806343F088
:101830000103136000BF0C37BD4680BC704700BF7A
:1018400000100240000C01400058004080B483B0FA
:1018500000AF42F210737B6005E07B68013B7B6068
:101860007B68002B06D0124B9B6903F00203002B10
:10187000F3D100E000BF0E4B1B680D4A43F48073A8
:10188000136042F210737B6005E07B68013B7B6074
:101890007B68002B06D0064B5B6903F00103002B2D
:1018A000F3D000E000BF00BF0C37BD4680BC7047DE
:1018B0000058004080B483B000AF0A4B1B68094A4F
:1018C00043F40073136000237B6002E07B68013304
:1018D0007B607B68632BF9DD00BF00BF0C37BD4622
:1018E00080BC70470058004080B485B000AF03460C
:1018F0000A46FB711346BB7142F21073FB60154B35
:101900005B69144A23F480635361FB795A00BB7905
:101910001A43104B1A610FE00E4B5B6903F48063AE
:10192000002B01D0FF2310E0FB68013BFB60FB684C
:10193000002B01D1FE2308E0064B5B6903F0020394
:10194000002BE9D0034B9B69002318461437BD4692
:1019500080BC70470058004080B485B000AF03469B
:10196000FB7142F21073FB600FE01C4B5B6903F4E8
:101970008063002B01D0FF232BE0FB68013BFB6061
:10198000FB68002B01D1FE2323E0144B5B6903F0BD
:101990008003002BE9D0114AFB79136142F21073E6
:1019A000FB600FE00D4B5B6903F48063002B01D0FB
:1019B000FF230EE0FB68013BFB60FB68002B01D1BD
:1019C000FE2306E0054B5B6903F08003002BE9D0A2
:1019D000002318461437BD4680BC704700580040AD
:1019E00080B485B000AF0346FB7142F21073FB6018
:1019F000FB79002B06D0124B1B68114A43F480631D
:101A000013600EE00E4B1B680D4A23F480631360D5
:101A100007E0FB68013BFB60FB68002B01D1002362
:101A200008E0074B5B6903F04003002BF1D0044B47
:101A30001B69DBB218461437BD4680BC704700BF37
:101A40000058004080B584B000AF03460A46FB71E1
:101A50001346BB71FB7943F00803FB73BB79002B82
:101A600003D0FB7B43F00103FB73FFF7EFFE002184
:101A70002720FFF739FFFB7B43F00403DBB2184656
:101A8000FFF76AFFFFF716FF0023BB6002E0BB68A9
:101A90000133BB60BB68092BF9DDFFF7D7FE0021DE
:101AA0002720FFF721FFFB7B23F00403DBB218465E
:101AB000FFF752FFFFF7FEFE00BF1037BD4680BDA7
:101AC00080B582B000AF0346FB71FB7923F00F03B2
:101AD000DBB200211846FFF7B5FFFB791B01DBB233
:101AE00000211846FFF7AEFFFB79012B02D0FB79EE
:101AF000022B03D1142001F089F803E0012001F04A
:101B000085F800BF00BF0837BD4680BD80B584B0F2
:101B100000AF0346FB71FB7923F00F03DBB2012119
:101B20001846FFF78FFFFB791B01DBB20121184636
:101B3000FFF788FF0023FB6002E0FB680133FB60D6
:101B4000FB68B3F5FA7FF8DB00BF00BF1037BD4676
:101B500080BD80B500AF642001F058F8002130202E
:101B6000FFF770FF052001F051F800213020FFF74A
:101B700069FF052001F04AF800213020FFF762FFDD
:101B8000052001F043F800212020FFF75BFF05202E
:101B900001F03CF82820FFF793FF0820FFF790FFA3
:101BA0000120FFF78DFF0620FFF78AFF0C20FFF7CB
:101BB00087FF00BF80BD80B582B000AF786006E0CF
:101BC0007B685A1C7A601B781846FFF79FFF7B687A
:101BD0001B78002BF4D100BF00BF0837BD4680BD85
:101BE00080B500AF0120FFF76BFF00BF80BD80B55F
:101BF00084B000AF03460A46FB711346BB71FB7904
:101C0000002B03D1BB79803BFB7302E0BB79403BE7
:101C1000FB73FB7B1846FFF753FF00BF1037BD4631
:101C200080BD000080B582B000AF786039600021CF
:101C30000020FFF7DCFF1A48FFF7BDFF02213868DC
:101C400000F032F84320FFF761FF2020FFF75EFF2E
:101C50002020FFF75BFF2020FFF758FF2020FFF731
:101C600055FF00210120FFF7C2FF0E48FFF7A3FF39
:101C70000221786800F018F84320FFF747FF202082
:101C8000FFF744FF2020FFF741FF2020FFF73EFF32
:101C90002020FFF73BFF00BF0837BD4680BD00BFD7
:101CA000187E0008247E000880B586B000AF7860FA
:101CB0000B46FB704FF000017868FFF7B1F903465F
:101CC000002B06D02D20FFF721FF7B6883F0004317
:101CD0007B607868FFF7F2F90346FB82FB8A1846BF
:101CE000FEF7ACFF034619467868FEF7F1FE03469F
:101CF0003B610023FB8100237B7308E07F49386947
:101D0000FEF7F0FF03463B617B7B01337B737A7BFD
:101D1000FB789A42F2D33869FEF786FB4FF0000257
:101D2000774BFEF723FA02460B4610461946FEF79C
:101D3000ABFE0346FB8101237B8100237B7208E01D
:101D40007B891A46920013445B007B817B7A0133C6
:101D50007B727A7AFB789A42F2D3FA897B899A422B
:101D600004D30023FB81FB8A0133FB82FB8A632BB4
:101D700033D9FB8A634AA2FB03235B099BB2DBB224
:101D80003033DBB21846FFF7C1FEFB8A5E4AA2FB86
:101D90000323DB089AB25C4BA3FB0213D9080B4662
:101DA0009B000B445B00D31A9BB2DBB23033DBB237
:101DB0001846FFF7ABFEFA8A534BA3FB0213D90870
:101DC0000B469B000B445B00D31A9BB2DBB2303353
:101DD000DBB21846FFF79AFE27E0FB8A092B1DD9D4
:101DE000FB8A494AA2FB0323DB089BB2DBB23033F8
:101DF000DBB21846FFF78AFEFA8A434BA3FB0213B5
:101E0000D9080B469B000B445B00D31A9BB2DBB294
:101E10003033DBB21846FFF779FE06E0FB8ADBB20F
:101E20003033DBB21846FFF771FE2E20FFF76EFE4F
:101E3000FB78032B33D1FB89324AA2FB03235B09D6
:101E40009BB2DBB23033DBB21846FFF75FFEFB8993
:101E50002D4AA2FB0323DB089AB22B4BA3FB0213F0
:101E6000D9080B469B000B445B00D31A9BB2DBB234
:101E70003033DBB21846FFF749FEFA89224BA3FB49
:101E80000213D9080B469B000B445B00D31A9BB28C
:101E9000DBB23033DBB21846FFF738FE2AE0FB78BE
:101EA000022B1DD1FB89184AA2FB0323DB089BB23E
:101EB000DBB23033DBB21846FFF728FEFA89124B4B
:101EC000A3FB0213D9080B469B000B445B00D31AFB
:101ED0009BB2DBB23033DBB21846FFF717FE09E0E6
:101EE000FB78012B06D1FB89DBB23033DBB218461D
:101EF000FFF70CFE00BF1837BD4680BD0000204133
:101F00000000E03F1F85EB51CDCCCCCC80B584B038
:101F100000AFF860B9607A6000210020FFF767FE2B
:101F20002248FFF748FE0221F868FFF7BDFE202097
:101F3000FFF7ECFD2020FFF7E9FD2020FFF7E6FD8D
:101F400008210020FFF753FE1948FFF734FE022155
:101F5000B868FFF7A9FE2020FFF7D8FD2020FFF783
:101F6000D5FD00210120FFF742FE1248FFF723FEB6
:101F700002217868FFF798FE2020FFF7C7FD202098
:101F8000FFF7C4FD0C48FFF716FE2020FFF7BEFD4B
:101F90002020FFF7BBFD2020FFF7B8FD2020FFF732
:101FA000B5FD00BF1037BD4680BD00BF307E0008C4
:101FB000507E00083C7E0008547E000880B584B046
:101FC00000AFF860B9607A6000210020FFF70FFED3
:101FD0002048FFF7F0FD0221F868FFF765FE20209A
:101FE000FFF794FD2020FFF791FD2020FFF78EFDE5
:101FF00008210020FFF7FBFD1748FFF7DCFD022159
:10200000B868FFF751FE2020FFF780FD2020FFF782
:102010007DFD2020FFF77AFD00210120FFF7E7FD7D
:102020000E48FFF7C8FD02217868FFF73DFE20202B
:10203000FFF76CFD2020FFF769FD0948FFF7BBFDA6
:102040002020FFF763FD2020FFF760FD00BF103761
:10205000BD4680BD407E0008587E00084C7E0008CA
:102060005C7E000880B58CB000AF01F0C3FB00F0CF
:10207000DDF800F057F900F01FF900F099FD00F0CD
:1020800089FEFFF76BFBFFF764FD00F007FAFFF72F
:1020900051F8FFF7E5F8FFF70DFBFFF76FF90023A5
:1020A00087F82F30002387F82E30002387F82D3053
:1020B000002387F82C30FFF793FD5148FFF77BFD95
:1020C00000210120FFF793FD4E48FFF774FD4FF408
:1020D000FA60FFF72FFBFFF783FD4B48FFF76BFD1F
:1020E00001F02CFB01F041FBB862FFF779FDBB6A00
:1020F000464A93420DD14648FFF75DFD002101207D
:10210000FFF775FD4348FFF756FD434800F066FFB3
:102110003BE04248FFF74FFD00210120FFF767FD3C
:102120003F48FFF748FDBB6A1B0D03F00F033D4A14
:10213000D35C87F82030BB6A1B0C03F00F03394ACD
:10214000D35C87F82130BB6A1B0B03F00F03354AC1
:10215000D35C87F82230BB6A1B0A03F00F03314AB5
:10216000D35C87F82330002387F8243007F120035D
:102170001846FFF720FD3B46BA6A2B49184603F084
:10218000CFFC3B46184600F029FF4FF4FA60FFF7FA
:10219000D1FA0A2000F07CFD97F82F305A1C87F8FE
:1021A0002F20632B04D900F09DFC002387F82F30EB
:1021B00097F82E305A1C87F82E20042B04D900F0F3
:1021C000B3FC002387F82E3097F82D305A1C87F87F
:1021D0002D20092B04D900F0B3FC002387F82D3003
:1021E00097F82C305A1C87F82C20092B04D900F0C2
:1021F00039FC002387F82C3000F08CFDCCE700BFC1
:10220000647E0008747E0008847E00081740EF009A
:10221000987E0008A47E0008B07E0008D07E0008EA
:10222000E07E0008047F0008E87E000880B590B0DA
:1022300000AF07F1180328220021184603F0D5FC4F
:102240003B1D00221A605A609A60DA601A6101230D
:10225000BB614FF48033FB6100233B620123BB620F
:1022600002237B634FF48033BB634FF4E013FB63C3
:1022700007F11803184601F0C3FD0346002B01D0F7
:1022800000F09AF80F237B600223BB600023FB6001
:102290004FF480633B6100237B613B1D02211846A4
:1022A00002F030F80346002B01D000F085F800BFA3
:1022B0004037BD4680BD000080B500AF174B184ABF
:1022C0001A60164B4FF482725A60144B00229A60C7
:1022D000124B0022DA60114B00221A610F4B0022D0
:1022E0005A610E4B4FF400729A610C4B1822DA615E
:1022F0000A4B00221A62094B00225A62074B002245
:102300009A62064B0A22DA62044802F057F9034641
:10231000002B01D000F050F800BF80BDFC01002070
:102320000030014080B588B000AF07F110030022F3
:102330001A605A609A60DA601D4B9B691C4A43F030
:10234000200393611A4B9B6903F02003FB60FB6839
:10235000174B9B69164A43F004039361144B9B6926
:1023600003F00403BB60BB68114B9B69104A43F048
:10237000080393610E4B9B6903F008037B607B6845
:10238000012240210B4801F023FD40233B61012342
:102390007B610023BB610323FB6107F11003194636
:1023A000044801F091FB00BF2037BD4680BD00BF4F
:1023B00000100240000C014080B400AF72B600BFB4
:1023C00000BFFDE780B582B000AF03463960FB7106
:1023D000FFF73CFA00216820FFF786FA0346002B3E
:1023E00003D0FFF767FAFF2321E0FB791846FFF7D8
:1023F000B3FA0346002B03D0FFF75CFAFF2316E085
:10240000FFF724FA01216820FFF76EFA0346002B3C
:1024100003D0FFF74FFAFF2309E00020FFF7E0FAAF
:1024200003461A463B681A70FFF744FA0023184621
:102430000837BD4680BD80B582B000AF03460A466E
:10244000FB711346BB71FFF701FA00216820FFF70B
:102450004BFA0346002B03D0FFF72CFAFF2318E0BA
:10246000FB791846FFF778FA0346002B03D0FFF7F5
:1024700021FAFF230DE0BB791846FFF76DFA0346FA
:10248000002B03D0FFF716FAFF2302E0FFF712FA42
:10249000002318460837BD4680BD000080B582B0D5
:1024A00000AFFB1D19467520FFF78CFF0346002B7C
:1024B00004D0124800F092FDFF231AE0FB79682B4C
:1024C00004D00F4800F08AFDFF2312E000216B20AA
:1024D000FFF7B1FF0346002B04D00A4800F07EFD51
:1024E000FF2306E0084800F079FD0A2000F08EFB8B
:1024F000002318460837BD4680BD00BF187F00087E
:10250000347F0008487F0008607F000890B585B0E0
:1025100000AF03463960FB711346BB71FFF796F9B4
:1025200000216820FFF7E0F90346002B03D0FFF7F6
:10253000C1F9FF2336E0FB791846FFF70DFA034691
:10254000002B03D0FFF7B6F9FF232BE0FFF77EF94E
:1025500001216820FFF7C8F90346002B03D0FFF7DD
:10256000A9F9FF231EE00023FB7314E0FA7BBB797B
:10257000013B9A42B4BF01230023DBB2BB73FB7B58
:102580003A68D418BB7B1846FFF72AFA0346237033
:10259000FB7B0133FB73FA7BBB799A42E6D3FFF7EF
:1025A00089F9002318461437BD4690BD80B584B024
:1025B00000AF3B460E2219463B20FFF7A7FF03461C
:1025C000002B01D0FF2346E03B781BB21B021AB25E
:1025D0007B781BB213431AB2214B1A80BB781BB213
:1025E0001B021AB2FB781BB213431AB21C4B5A805F
:1025F0003B791BB21B021AB27B791BB213431AB28E
:10260000174B9A80BB791BB21B021AB2FB791BB223
:1026100013431AB2124BDA803B7A1BB21B021AB276
:102620007B7A1BB213431AB20D4B1A81BB7A1BB2D1
:102630001B021AB2FB7A1BB213431AB2084B5A811F
:102640003B7B1BB21B021AB27B7B1BB213431AB239
:10265000034B9A81002318461037BD4680BD00BF4A
:102660005402002080B500AF394B1B881BB21846BE
:10267000FEF7E4FA03464FF08D411846FEF7E6FBFD
:1026800003461A46334B1A60314B5B881BB218461F
:10269000FEF7D4FA03464FF08D411846FEF7D6FBFD
:1026A00003461A462B4B5A60294B9B881BB218468F
:1026B000FEF7C4FA03464FF08D411846FEF7C6FBFD
:1026C00003461A46234B9A60214B1B891BB21846BE
:1026D000FEF7B4FA034620491846FEF7B7FB034657
:1026E0001A461C4B1A611A4B5B891BB21846FEF73F
:1026F000A5FA034618491846FEF7A8FB03461A46F2
:10270000144B5A61124B9B891BB21846FEF796FA7E
:10271000034611491846FEF799FB03461A460D4B2E
:102720009A610B4BDB881BB21846FEF787FA03460B
:102730000A491846FEF78AFB034609491846FEF780
:10274000C9F903461A46034BDA6000BF80BD00BFDB
:102750005402002064020020000003430000AA434A
:10276000B81E124280B485B000AF154B9B69144A65
:1027700043F001039361124B9B6903F00103BB60BB
:10278000BB680F4BDB690E4A43F08053D3610C4B9F
:10279000DB6903F080537B607B680A4B5B68FB60FE
:1027A000FB6823F0E063FB60FB6843F00073FB60B1
:1027B000044AFB68536000BF1437BD4680BC7047B5
:1027C000001002400000014080B58AB000AF786080
:1027D00007F1140300221A605A609A60DA607B687D
:1027E0001B68224A93423DD1214B9B69204A43F406
:1027F000805393611E4B9B6903F480533B613B699B
:102800001B4B9B691A4A43F008039361184B9B6961
:1028100003F00803FB60FB6828237B610223BB6194
:1028200003233B6207F114031946124801F04CF9E7
:1028300010237B610023BB610023FB6107F11403BC
:1028400019460C4801F040F90B4B5B687B627B6AD0
:1028500043F0E0637B627B6A43F001037B62064ADC
:102860007B6A536000BF2837BD4680BD0030014001
:1028700000100240000C01400000014080B400AF95
:1028800000BFFDE780B400AF00BFFDE780B400AF3C
:1028900000BFFDE780B400AF00BFFDE780B400AF2C
:1028A00000BFFDE780B400AF00BFBD4680BC7047ED
:1028B00080B400AF00BFBD4680BC704780B400AF9D
:1028C00000BFBD4680BC704780B500AF00F0D8FFA8
:1028D00000BF80BD80B400AF01231846BD4680BC58
:1028E000704780B582B000AF7860396003F0D0F9EE
:1028F000034616221A604FF0FF3318460837BD46CC
:1029000080BD80B582B000AF78604FF0FF3178684D
:10291000FFF7E7FF00BFFDE780B586B000AFF860C6
:10292000B9607A6000237B610AE0AFF30080014662
:10293000BB685A1CBA60CAB21A707B6901337B61EA
:102940007A697B689A42F0DB7B6818461837BD4687
:1029500080BD80B586B000AFF860B9607A600023B2
:102960007B6109E0BB685A1CBA601B781846AFF35C
:1029700000807B6901337B617A697B689A42F1DB75
:102980007B6818461837BD4680BD80B483B000AF61
:1029900078604FF0FF3318460C37BD4680BC704757
:1029A00080B483B000AF786039603B684FF4005268
:1029B0005A60002318460C37BD4680BC704780B46F
:1029C00083B000AF7860012318460C37BD4680BC49
:1029D000704780B485B000AFF860B9607A600023BA
:1029E00018461437BD4680BC7047000080B586B0DD
:1029F00000AF7860144A154BD31A7B617B693B6149
:102A0000134B1B68002B02D1114B124A1A60104B5A
:102A10001A687B6813443A699A4207D203F038F97E
:102A200003460C221A604FF0FF3309E0084B1B6885
:102A3000FB60074B1A687B681344054A1360FB6808
:102A400018461837BD4680BD005000200004000025
:102A5000800200205005002080B400AF00BFBD46BA
:102A600080BC704780B584B002AFFEF7B3FB03466D
:102A7000FB71FB79022B1BD0022B29DC002B02D02F
:102A8000012B09D024E0144B1B68144AD168144A66
:102A9000184600F0FDFA17E0104B19680F4B5A6802
:102AA0000E4B9B68022000900D4800F088FC0BE064
:102AB0000A4B1969094B5A69084B9B69022000901F
:102AC000074800F027FD00BF054800F087FA00E046
:102AD00000BF0837BD4680BDF4010020640200201D
:102AE0008402002080B582B000AFFEF7A1FD7860BF
:102AF0000B497868FEF7B2FA0346002B06D0094A64
:102B00007B681360074B01221A7102E0054B00221B
:102B10001A71FEF7BFFD00BF0837BD4680BD00BF7C
:102B20000000C8C2F401002080B500AFFFF73EFDF1
:102B30000346002B01D1FFF795FD00BF80BD0000CB
:102B400080B582B000AFFEF745FB0346FB71FB7911
:102B5000022B19D0022B21DC002B02D0012B09D033
:102B60001CE0114B1B68114AD26811461846FFF74A
:102B700059F814E00D4B1B680C4A51680B4A9268D7
:102B80001846FFF7C3F90AE0084B1B69074A516969
:102B9000064A92691846FFF711FA00E000BF00BF2D
:102BA0000837BD4680BD00BFF4010020640200204C
:102BB00080B483B000AF144BDB69134A43F00103C8
:102BC000D36100237B6002E07B6801337B607B681C
:102BD000092BF9DD4FF0804341F61F429A624FF016
:102BE0008043DB684FF0804223F00103D3604FF055
:102BF00080431B684FF0804243F00103136000BF25
:102C00000C37BD4680BC70470010024080B483B0D2
:102C100000AF0346FB804FF080431B684FF08042BB
:102C200023F001031360FB88013B9BB21A46134655
:102C30009B0013445B001A464FF08043DA624FF06A
:102C4000804300225A624FF080431B684FF080425D
:102C500043F00103136000BF4FF080431B6903F092
:102C60000103002BF8D04FF080431B694FF08042E6
:102C700023F0010313614FF080431B684FF0804243
:102C800023F00103136000BF0C37BD4680BC7047C2
:102C900080B483B000AF0346FB801B4BDB691A4A4C
:102CA00043F00203D361194B1B68184A23F0010358
:102CB0001360FB881A46920013445B009AB2144BCF
:102CC0001A80124B41F61F429A62114B1B885A1E02
:102CD0000E4BDA620D4B00225A620C4B1B690B4AF9
:102CE00023F001031361094BDB68084A23F0010359
:102CF000D360064B1B68054A43F00103136000BF15
:102D00000C37BD4680BC70470010024000040040F4
:102D1000A402002080B400AF0F4B1B6903F0010335
:102D2000002B07D00C4B1B690B4A23F001031361E6
:102D300001230DE000BF084B1B6903F00103002BCA
:102D4000F9D0054B1B69044A23F0010313610023EA
:102D50001846BD4680BC70470004004080B483B074
:102D600000AF0346FB7197F90730002B0BDBFB79B3
:102D700003F01F02064997F907305B09012000FAAA
:102D800002F241F8232000BF0C37BD4680BC7047DB
:102D900000E100E080B500AF204B9B691F4A43F47F
:102DA000804343F0050393611D4B5B681C4A23F08D
:102DB000F00353601A4B5B68194A43F0B003536049
:102DC000174B5B68164A23F470635360144B5B68BF
:102DD000134A43F480635360124BDB68114A23F4B7
:102DE0000053D3600F4B40F271229A600D4B0022CA
:102DF0001A6040220C490D4800F01EF84FF4807212
:102E00000B490C4800F018F8064B42F22C02DA602D
:102E10002520FFF7A3FF00BF80BD00BF00100240C8
:102E20000008014000380140A8020020E80300200B
:102E3000E8020020F403002080B485B000AFF86001
:102E4000B9601346FB80FB68BA681A60FB68FA88B1
:102E50009A80FB680022DA80FB6800221A81FB68F6
:102E600000225A8100BF1437BD4680BC704780B431
:102E700083B000AF78607B685B899BB2002B0CBF8E
:102E800001230023DBB218460C37BD4680BC7047D7
:102E900080B483B000AF78607B685B899AB27B684E
:102EA0009B889BB29A422CBF01230023DBB21846B9
:102EB0000C37BD4680BC704780B582B000AF7860EB
:102EC0000B46FB7072B600BF7868FFF7E1FF034660
:102ED000002B03D062B600BF002320E07B681B6894
:102EE0007A68D28892B21344FA781A707B68DB88C9
:102EF0009BB201337A68928892B293FBF2F101FBA4
:102F000002F29B1A9AB27B68DA807B685B899BB27B
:102F100001339AB27B685A8162B600BF012318461A
:102F20000837BD4680BD80B584B000AF786000230F
:102F3000FB7372B600BF7868FFF799FF034683F012
:102F40000103DBB2002B1DD07B681B687A681289F5
:102F500092B213441B78FB737B681B899BB20133CD
:102F60007A68928892B293FBF2F101FB02F29B1A0B
:102F70009AB27B681A817B685B899BB2013B9AB2EB
:102F80007B685A8162B600BFFB7B18461037BD468E
:102F900080BD000080B582B000AF0346FB7100BF6A
:102FA0000C48FFF775FF0346002BF9D172B600BF3E
:102FB000FB7919460748FFF77FFF074BDB68064A96
:102FC00043F08003D36062B600BF00BF0837BD4640
:102FD00080BD00BFF40300200038014080B582B0FE
:102FE00000AF786006E07B685A1C7A601B78184650
:102FF000FFF7D0FF7B681B78002BF4D100BF00BF28
:103000000837BD4680BD000080B582B000AF1D4BC3
:103010001B6803F02003002B07D01A4B5B68FB7181
:10302000FB7919461848FFF747FF164BDB6803F09A
:103030008003002B21D0134B1B6803F08003002B6F
:103040001BD01248FFF713FF034683F00103DBB2E6
:10305000002B06D00D48FFF766FF03461A46094BC2
:103060005A600A48FFF703FF0346002B05D0054BC3
:10307000DB68044A23F08003D36000BF0837BD46F5
:1030800080BD00BF00380140E8030020F4030020A9
:1030900080B58CB000AFF860B9607A607B68FB6285
:1030A000FB6A5A1CFA6254221A70FB6A5A1CFA62B2
:1030B00045221A70FB6A5A1CFA624D221A70FB6A8A
:1030C0005A1CFA6250221A70FB6A5A1CFA622022B9
:1030D0001A70FB6A5A1CFA626D221A70FB6A5A1C3B
:1030E000FA6270221A70FB6A5A1CFA6275221A7010
:1030F000FB6A5A1CFA623A221A70FB6A5A1CFA627C
:1031000020221A7007F1140143230222B86800F04C
:1031100025F907F11403BB6208E0FB6A5A1CFA6246
:10312000BA6A12781A70BB6A0133BB62BB6A1B7839
:10313000002BF2D1FB6A5A1CFA6220221A70FB6A39
:103140005A1CFA6254221A70FB6A5A1CFA6245220F
:103150001A70FB6A5A1CFA624D221A70FB6A5A1CDA
:10316000FA6250221A70FB6A5A1CFA6220221A7004
:10317000FB6A5A1CFA6264221A70FB6A5A1CFA62D1
:1031800073221A70FB6A5A1CFA6231221A70FB6AA7
:103190005A1CFA6238221A70FB6A5A1CFA623A22E6
:1031A0001A70FB6A5A1CFA6220221A7007F1140185
:1031B00043230222F86800F0D1F807F114037B6280
:1031C00008E0FB6A5A1CFA627A6A12781A707B6A03
:1031D00001337B627B6A1B78002BF2D1FB6A5A1C9D
:1031E000FA620D221A70FB6A5A1CFA620A221A70DD
:1031F000FB6A00221A7000BF3037BD4680BD000058
:1032000080B58CB000AFF860B9601346FB71BB6845
:10321000FB624FF00001F868FDF702FF0346002B48
:1032200008D0FB6A5A1CFA622D221A70FB6883F0E0
:103230000043FB60F868FDF71BFF0346BB62B86AFA
:10324000FDF7FCFC03461946F868FDF741FC034610
:103250007B62002387F82330BB6A002B2AD197F8C2
:1032600023305A1C87F8232030333B44302203F8A4
:10327000202C2DE0BA6A374B83FB02139910D31729
:10328000C91A0B469B000B445B00D11ACAB297F8CF
:103290002330591C87F823103032D2B230333B44EC
:1032A00003F8202CBB6A2B4A82FB03129210DB1717
:1032B000D31ABB62BB6A002BDCDC09E097F8232041
:1032C000FB6A591CF96230323A4412F8202C1A7009
:1032D00097F823305A1E87F82320002BEED1FB6A83
:1032E0005A1CFA622E221A70002387F8223024E03A
:1032F0001949786AFDF7F6FC03467B62786AFDF7A8
:10330000DDFE034687F82130FB6A5A1CFA6297F803
:1033100021203032D2B21A7097F821301846FDF7CA
:103320008DFC03461946786AFDF7D2FB03467B62A3
:1033300097F82230013387F8223097F82220FB7962
:103340009A42D5D3FB6A00221A7000BF3037BD46BF
:1033500080BD00BF676666660000204180B58AB008
:1033600000AFF860B96011461A460B46FB71134670
:10337000BB71BB687B62FA7907F110031946F868E4
:10338000FFF73EFF07F110033B6208E07B6A5A1C1F
:103390007A623A6A12781A703B6A01333B623B6A7E
:1033A0001B78002BF2D17B6A5A1C7A62BA791A70A8
:1033B0007B6A00221A7000BF2837BD4680BD80B5E9
:1033C0008CB000AFF860B9607A603B60FB68FB626C
:1033D000FB6A5A1CFA6241221A70FB6A5A1CFA6292
:1033E00058221A70FB6A5A1CFA623A221A7097F82D
:1033F000382007F110031946B868FFF701FF07F1FD
:103400001003BB6208E0FB6A5A1CFA62BA6A1278BF
:103410001A70BB6A0133BB62BB6A1B78002BF2D106
:10342000FB6A5A1CFA6267221A70FB6A5A1CFA621B
:1034300020221A70FB6A5A1CFA6241221A70FB6A37
:103440005A1CFA6259221A70FB6A5A1CFA623A2212
:103450001A7097F8382007F1100319467868FFF7BB
:10346000CFFE07F110037B6208E0FB6A5A1CFA6288
:103470007A6A12781A707B6A01337B627B6A1B78E6
:10348000002BF2D1FB6A5A1CFA6267221A70FB6A9F
:103490005A1CFA6220221A70FB6A5A1CFA624122F4
:1034A0001A70FB6A5A1CFA625A221A70FB6A5A1C7A
:1034B000FA623A221A7097F8382007F11003194679
:1034C0003868FFF79DFE07F110033B6208E0FB6AD6
:1034D0005A1CFA623A6A12781A703B6A01333B62EC
:1034E0003B6A1B78002BF2D1FB6A5A1CFA626722F6
:1034F0001A70FB6A5A1CFA620D221A70FB6A5A1C77
:10350000FA620A221A70FB6A00221A7000BF303772
:10351000BD4680BD80B58CB000AFF860B9607A6000
:103520003B60FB68FB62FB6A5A1CFA6247221A7016
:10353000FB6A5A1CFA6258221A70FB6A5A1CFA6219
:103540003A221A7097F8382007F110031946B86824
:10355000FFF756FE07F11003BB6208E0FB6A5A1C36
:10356000FA62BA6A12781A70BB6A0133BB62BB6A2C
:103570001B78002BF2D1FB6A5A1CFA6264221A7083
:10358000FB6A5A1CFA6270221A70FB6A5A1CFA62B1
:1035900073221A70FB6A5A1CFA6220221A70FB6AA4
:1035A0005A1CFA6247221A70FB6A5A1CFA625922A4
:1035B0001A70FB6A5A1CFA623A221A7097F838207D
:1035C00007F1100319467868FFF71AFE07F1100398
:1035D0007B6208E0FB6A5A1CFA627A6A12781A70F7
:1035E0007B6A01337B627B6A1B78002BF2D1FB6A1A
:1035F0005A1CFA6264221A70FB6A5A1CFA62702220
:103600001A70FB6A5A1CFA6273221A70FB6A5A1CFF
:10361000FA6220221A70FB6A5A1CFA6247221A7058
:10362000FB6A5A1CFA625A221A70FB6A5A1CFA6226
:103630003A221A7097F8382007F1100319463868B3
:10364000FFF7DEFD07F110033B6208E0FB6A5A1C3E
:10365000FA623A6A12781A703B6A01333B623B6A3B
:103660001B78002BF2D1FB6A5A1CFA6264221A7092
:10367000FB6A5A1CFA6270221A70FB6A5A1CFA62C0
:1036800073221A70FB6A5A1CFA620D221A70FB6AC6
:103690005A1CFA620A221A70FB6A00221A7000BFD2
:1036A0003037BD4680BD80B582B000AF78607868A5
:1036B00000F002F900BF0837BD4680BD80B500AFFD
:1036C00000224021024800F083FB00BF80BD00BF04
:1036D000000C014080B500AF01224021024800F0FB
:1036E00077FB00BF80BD00BF000C014080B582B0F9
:1036F00000AF78600B46FB70FB789AB24FF4FA6328
:103700007968034800F0DEFF00BF0837BD4680BD82
:10371000FC01002080B582B000AF78600B46FB70E2
:10372000FB789AB241F288337968034801F00EF9C8
:1037300000BF0837BD4680BDFC01002080B582B0C7
:1037400000AF66233B7199237B71FFF7B7FF3B1DE9
:1037500002211846FFF7CAFFFFF7BCFF6420FFF7FE
:10376000A2FF00BF0837BD4680BD80B582B000AF64
:103770009F23FB71FFF7A2FFFB1D01211846FFF7F6
:10378000B5FF3B1D03211846FFF7C4FFFFF7A2FF5B
:103790007B791A04BB791B02134343F017031846C5
:1037A0000837BD4680BD0000FFF756F90B480C49AD
:1037B0000C4A002302E0D458C4500433C4188C428D
:1037C000F9D3094A094C002301E013600432A242F4
:1037D000FBD302F063FAFEF745FC704700000020BF
:1037E000D40100202C830008D401002050050020C3
:1037F000FEE7000080B500AF084B1B68074A43F0A6
:1038000010031360032000F02BF90F2000F008F8DC
:10381000FEF7A8FF0023184680BD00BF002002402D
:1038200080B582B000AF7860124B1A68124B1B78DB
:1038300019464FF47A73B3FBF1F3B2FBF3F3184676
:1038400000F035F90346002B01D001230EE07B6820
:103850000F2B0AD8002279684FF0FF3000F00BF9E7
:10386000064A7B681360002300E0012318460837EE
:10387000BD4680BD0000002008000020040000209C
:1038800080B400AF054B1B781A46054B1B681344E8
:10389000034A136000BFBD4680BC7047080000208B
:1038A0000004002080B400AF024B1B681846BD46E0
:1038B00080BC70470004002080B584B000AF786001
:1038C000FFF7F0FFB8607B68FB60FB68B3F1FF3F78
:1038D00005D00A4B1B781A46FB681344FB6000BFF7
:1038E000FFF7E0FF0246BB68D31AFA689A42F7D89E
:1038F00000BF00BF1037BD4680BD00BF08000020DC
:1039000080B485B000AF78607B6803F00703FB608C
:103910000C4BDB68BB60BA684FF6FF031340BB601B
:10392000FB681A02BB68134343F0BF6343F40033E0
:10393000BB60044ABB68D36000BF1437BD4680BC7F
:10394000704700BF00ED00E080B400AF044BDB68BF
:103950001B0A03F007031846BD4680BC704700BF32
:1039600000ED00E080B483B000AF03463960FB7126
:1039700097F90730002B0ADB3B68DAB20C4997F95C
:1039800007301201D2B20B4483F800230AE03B68EF
:10399000DAB20849FB7903F00F03043B1201D2B2FB
:1039A0000B441A7600BF0C37BD4680BC704700BF81
:1039B00000E100E000ED00E080B489B000AFF86005
:1039C000B9607A60FB6803F00703FB61FB69C3F130
:1039D0000703042B28BF0423BB61FB690433062BB8
:1039E00002D9FB69033B00E000237B614FF0FF320B
:1039F000BB6902FA03F3DA43BB681A407B699A4059
:103A00004FF0FF317B6901FA03F3D9437B680B4028
:103A1000134318462437BD4680BC704780B582B03A
:103A200000AF78607B68013BB3F1807F01D3012355
:103A30000FE00A4A7B68013B53600F214FF0FF30D3
:103A4000FFF790FF054B00229A60044B07221A6093
:103A5000002318460837BD4680BD00BF10E000E0D7
:103A600080B582B000AF78607868FFF749FF00BF8B
:103A70000837BD4680BD80B586B000AF0346B9604B
:103A80007A60FB7300237B61FFF75EFF78617A68E1
:103A9000B9687869FFF790FF024697F90F30114631
:103AA0001846FFF75FFF00BF1837BD4680BD80B5E1
:103AB00082B000AF78607868FFF7B0FF0346184621
:103AC0000837BD4680BD000080B48BB000AF786081
:103AD000396000237B6200233B6269E101227B6A3B
:103AE00002FA03F3FB613B681B68FA691340BB6190
:103AF000BA69FB699A4240F058813B685B689A4A10
:103B000093425ED0984A934275D8984A934258D0CF
:103B1000964A93426FD8964A934252D0944A93421F
:103B200069D8944A93424CD0924A934263D8924ABD
:103B3000934246D0904A93425DD8122B2AD8122B3A
:103B400059D801A252F823F0C33B00089D3B00085E
:103B5000AF3B0008F13B0008F73B0008F73B0008CB
:103B6000F73B0008F73B0008F73B0008F73B00086D
:103B7000F73B0008F73B0008F73B0008F73B00085D
:103B8000F73B0008F73B0008F73B0008A53B00089F
:103B9000B93B0008794A934213D02CE03B68DB68BC
:103BA0003B6229E03B68DB6804333B6224E03B680E
:103BB000DB6808333B621FE03B68DB680C333B6229
:103BC0001AE03B689B68002B02D104233B6213E0A0
:103BD0003B689B68012B05D108233B627B68FA692F
:103BE0001A6109E008233B627B68FA695A6103E0C5
:103BF00000233B6200E000BFBB69FF2B01D87B685C
:103C000001E07B6804337B61BB69FF2B02D87B6AD0
:103C10009B0002E07B6A083B9B003B617B691A6862
:103C20000F213B6901FA03F3DB431A40396A3B6910
:103C300001FA03F31A437B691A603B685B6803F07F
:103C40008053002B00F0B1804D4B9B694C4A43F0F0
:103C5000010393614A4B9B6903F00103BB60BB689E
:103C6000484A7B6A9B08023352F82330FB607B6A28
:103C700003F003039B000F2202FA03F3DB43FA680D
:103C80001340FB607B68404A934213D07B683F4AF5
:103C900093420DD07B683E4A934207D07B683D4AF1
:103CA000934201D1032306E0042304E0022302E04F
:103CB000012300E000237A6A02F00302920093409D
:103CC000FA681343FB602F497B6A9B080233FA684A
:103CD00041F823203B685B6803F48013002B06D077
:103CE0002D4B9A682C49BB6913438B6006E02A4B25
:103CF0009A68BB69DB43284913408B603B685B686B
:103D000003F40013002B06D0234BDA682249BB6969
:103D10001343CB6006E0204BDA68BB69DB431E49E6
:103D20001340CB603B685B6803F40033002B06D084
:103D3000194B5A681849BB6913434B6006E0164B90
:103D40005A68BB69DB43144913404B603B685B68AE
:103D500003F48033002B21D00F4B1A680E49BB6946
:103D600013430B6021E000BF00003210000031104F
:103D7000000022100000211000001210000011109D
:103D8000001002400000014000080140000C01400A
:103D90000010014000140140000401400B4B1A6860
:103DA000BB69DB43094913400B607B6A01337B62CB
:103DB0003B681A687B6A22FA03F3002B7FF48EAE0D
:103DC00000BF00BF2C37BD4680BC704700040140D7
:103DD00080B483B000AF78600B467B8013467B7065
:103DE0007B78002B03D07A887B681A6103E07B889C
:103DF0001A047B681A6100BF0C37BD4680BC70474F
:103E000080B586B000AF78607B68002B01D10123BC
:103E100072E27B681B6803F00103002B00F08780CF
:103E2000924B5B6803F00C03042B0CD08F4B5B6848
:103E300003F00C03082B12D18C4B5B6803F4803326
:103E4000B3F5803F0BD1894B1B6803F40033002B83
:103E50006CD07B685B68002B68D101234CE27B68E7
:103E60005B68B3F5803F06D1804B1B687F4A43F403
:103E7000803313602EE07B685B68002B0CD17B4B9A
:103E80001B687A4A23F480331360784B1B68774AA7
:103E900023F4802313601DE07B685B68B3F5A02FDB
:103EA0000CD1724B1B68714A43F4802313606F4B33
:103EB0001B686E4A43F4803313600BE06B4B1B6846
:103EC0006A4A23F480331360684B1B68674A23F403
:103ED000802313607B685B68002B13D0FFF7E2FC44
:103EE000386108E0FFF7DEFC02463B69D31A642B19
:103EF00001D9032300E25D4B1B6803F40033002B60
:103F0000F0D014E0FFF7CEFC386108E0FFF7CAFC00
:103F100002463B69D31A642B01D90323ECE1534BCE
:103F20001B6803F40033002BF0D100E000BF7B6876
:103F30001B6803F00203002B63D04C4B5B6803F05B
:103F40000C03002B0BD0494B5B6803F00C03082BD0
:103F50001CD1464B5B6803F48033002B16D1434BD6
:103F60001B6803F00203002B05D07B681B69012B43
:103F700001D00123C0E13D4B1B6823F0F8027B68B0
:103F80005B69DB00394913430B603AE07B681B69CE
:103F9000002B20D0364B01221A60FFF783FC3861DA
:103FA00008E0FFF77FFC02463B69D31A022B01D9D8
:103FB0000323A1E12D4B1B6803F00203002BF0D07B
:103FC0002A4B1B6823F0F8027B685B69DB002749FA
:103FD00013430B6015E0264B00221A60FFF762FCCA
:103FE000386108E0FFF75EFC02463B69D31A022BFA
:103FF00001D9032380E11D4B1B6803F00203002B52
:10400000F0D17B681B6803F00803002B3AD07B6873
:104010009B69002B19D0174B01221A60FFF742FC55
:10402000386108E0FFF73EFC02463B69D31A022BD9
:1040300001D9032360E10D4B5B6A03F00203002BFF
:10404000F0D0012000F09CFA1CE00A4B00221A601C
:10405000FFF728FC38610FE0FFF724FC02463B69BC
:10406000D31A022B08D9032346E100BF00100240F7
:104070000000424280044242924B5B6A03F002031A
:10408000002BE9D17B681B6803F00403002B00F0D0
:10409000A6800023FB758B4BDB6903F08053002B5C
:1040A0000DD1884BDB69874A43F08053D361854B40
:1040B000DB6903F08053BB60BB680123FB75824B57
:1040C0001B6803F48073002B18D17F4B1B687E4A5A
:1040D00043F480731360FFF7E5FB386108E0FFF7F6
:1040E000E1FB02463B69D31A642B01D9032303E1A8
:1040F000754B1B6803F48073002BF0D07B68DB6882
:10410000012B06D16F4B1B6A6E4A43F00103136209
:104110002DE07B68DB68002B0CD16A4B1B6A694A77
:1041200023F001031362674B1B6A664A23F0040302
:1041300013621CE07B68DB68052B0CD1614B1B6AAA
:10414000604A43F0040313625E4B1B6A5D4A43F00E
:10415000010313620BE05B4B1B6A5A4A23F0010315
:104160001362584B1B6A574A23F0040313627B689F
:10417000DB68002B15D0FFF795FB38610AE0FFF7ED
:1041800091FB02463B69D31A41F28832934201D92E
:104190000323B1E04B4B1B6A03F00203002BEED06C
:1041A00014E0FFF77FFB38610AE0FFF77BFB024674
:1041B0003B69D31A41F28832934201D903239BE031
:1041C000404B1B6A03F00203002BEED1FB7D012B59
:1041D00005D13C4BDB693B4A23F08053D3617B68BC
:1041E000DB69002B00F08780364B5B6803F00C0323
:1041F000082B61D07B68DB69022B46D1334B002250
:104200001A60FFF74FFB386108E0FFF74BFB0246EF
:104210003B69D31A022B01D903236DE0294B1B689C
:1042200003F00073002BF0D17B681B6AB3F5803F6D
:1042300008D1244B5B6823F400327B689B682149DA
:1042400013434B601F4B5B6823F474127B68196A3D
:104250007B685B6A0B431B4913434B601B4B01227A
:104260001A60FFF71FFB386108E0FFF71BFB0246EF
:104270003B69D31A022B01D903233DE0114B1B6884
:1042800003F00073002BF0D035E0104B00221A60D1
:10429000FFF708FB386108E0FFF704FB02463B69C3
:1042A000D31A022B01D9032326E0064B1B6803F027
:1042B0000073002BF0D11EE07B68DB69012B07D176
:1042C000012319E0001002400070004060004242EB
:1042D0000B4B5B68FB60FB6803F480327B681B6AF6
:1042E0009A4206D1FB6803F470127B685B6A9A42BB
:1042F00001D0012300E0002318461837BD4680BDD9
:104300000010024080B584B000AF786039607B68EF
:10431000002B01D10123D0E06A4B1B6803F0070397
:104320003A689A4210D9674B1B6823F00702654927
:104330003B6813430B60634B1B6803F007033A6849
:104340009A4201D00123B8E07B681B6803F00203A6
:10435000002B20D07B681B6803F00403002B05D0E2
:10436000594B5B68584A43F4E06353607B681B68B1
:1043700003F00803002B05D0534B5B68524A43F40B
:1043800060535360504B5B6823F0F0027B689B687E
:104390004D4913434B607B681B6803F00103002BFE
:1043A00040D07B685B68012B07D1474B1B6803F447
:1043B0000033002B15D101237FE07B685B68022B63
:1043C00007D1414B1B6803F00073002B09D1012377
:1043D00073E03D4B1B6803F00203002B01D1012366
:1043E0006BE0394B5B6823F003027B685B683649FE
:1043F00013434B60FFF756FAF8600AE0FFF752FAF2
:104400000246FB68D31A41F28832934201D9032352
:1044100053E02D4B5B6803F00C027B685B689B00EC
:104420009A42EBD1274B1B6803F007033A689A4284
:1044300010D2244B1B6823F0070222493B68134328
:104440000B60204B1B6803F007033A689A4201D0C7
:10445000012332E07B681B6803F00403002B08D0C3
:10446000194B5B6823F4E0627B68DB6816491343F1
:104470004B607B681B6803F00803002B09D0124BCC
:104480005B6823F460527B681B69DB000E491343B1
:104490004B6000F021F802460B4B5B681B0903F0F0
:1044A0000F030A49CB5C22FA03F3094A1360094B54
:1044B0001B681846FFF7B4F9002318461037BD46AD
:1044C00080BD00BF0020024000100240847F000831
:1044D000000000200400002080B487B000AF00235B
:1044E000FB600023BB6000237B6100237B60002313
:1044F0003B611E4B5B68FB60FB6803F00C03042B05
:1045000002D0082B03D027E0194B3B6127E0FB6862
:104510009B0C03F00F03174AD35C7B60FB6803F42A
:104520008033002B10D0114B5B685B0C03F0010350
:10453000114AD35CBB607B680D4A03FB02F2BB6887
:10454000B2FBF3F37B6104E07B680C4A02FB03F3EC
:104550007B617B693B6102E0054B3B6100BF3B69CE
:1045600018461C37BD4680BC704700BF0010024093
:1045700000127A00947F0008A47F000800093D0023
:1045800080B485B000AF78600A4B1B680A4AA2FB72
:1045900003235B0A7A6802FB03F3FB6000BFFB683E
:1045A0005A1EFA60002BF9D100BF00BF1437BD4678
:1045B00080BC704700000020D34D621080B582B0EF
:1045C00000AF78607B68002B01D1012376E07B6827
:1045D0005B6A002B08D17B685B68B3F5827F09D0EA
:1045E0007B680022DA6105E07B6800221A617B6843
:1045F00000225A617B6800229A627B6893F85130EE
:10460000DBB2002B06D17B68002283F8502078684B
:10461000FEF7DAF87B68022283F851207B681B687A
:104620001A687B681B6822F040021A607B685B682E
:1046300003F482727B689B6803F404431A437B682B
:10464000DB6803F400631A437B681B6903F0020311
:104650001A437B685B6903F001031A437B689B691B
:1046600003F400731A437B68DB6903F038031A43D1
:104670007B681B6A03F0800342EA03017B689B6A44
:1046800003F400527B681B680A431A607B689B69CD
:104690001A0C7B681B6802F004025A607B681B6876
:1046A000DA697B681B6822F40062DA617B680022A9
:1046B0005A657B68012283F8512000231846083789
:1046C000BD4680BD80B588B000AFF860B9603B6082
:1046D0001346FB80FFF7E6F8F861FB887B83FB68F5
:1046E00093F85130DBB2012B01D002232AE1BB68E1
:1046F000002B02D0FB88002B01D1012322E1FB68B3
:1047000093F85030012B01D102231BE1FB680122F9
:1047100083F85020FB68032283F85120FB680022B5
:104720005A65FB68BA681A63FB68FA889A86FB6860
:10473000FA88DA86FB6800229A63FB6800229A876F
:10474000FB680022DA87FB6800225A64FB680022BB
:104750001A64FB689B68B3F5004F0FD1FB681B68B8
:104760001A68FB681B6822F040021A60FB681B682D
:104770001A68FB681B6842F480421A60FB681B6879
:104780001B6803F04003402B07D0FB681B681A68C6
:10479000FB681B6842F040021A60FB68DB68B3F5F7
:1047A000006F52D1FB685B68002B02D07B8B012B22
:1047B00045D1FB681B6B1A88FB681B68DA60FB68D5
:1047C0001B6B9A1CFB681A63FB68DB8E9BB2013B78
:1047D0009AB2FB68DA8632E0FB681B689B6803F0DC
:1047E0000203022B12D1FB681B6B1A88FB681B6843
:1047F000DA60FB681B6B9A1CFB681A63FB68DB8E34
:104800009BB2013B9AB2FB68DA8618E0FFF74AF8E0
:104810000246FB69D31A3A689A4203D83B68B3F15F
:10482000FF3F02D13B68002B09D1FB68012283F8CE
:104830005120FB68002283F85020032382E0FB68AC
:10484000DB8E9BB2002BC7D153E0FB685B68002B6B
:1048500002D07B8B012B47D1FB681A6BFB681B686E
:104860000C3312781A70FB681B6B5A1CFB681A63B6
:10487000FB68DB8E9BB2013B9AB2FB68DA8633E0C1
:10488000FB681B689B6803F00203022B13D1FB68D3
:104890001A6BFB681B680C3312781A70FB681B6B71
:1048A0005A1CFB681A63FB68DB8E9BB2013B9AB211
:1048B000FB68DA8618E0FEF7F5FF0246FB69D31ABB
:1048C0003A689A4203D83B68B3F1FF3F02D13B6894
:1048D000002B09D1FB68012283F85120FB680022DC
:1048E00083F8502003232DE0FB68DB8E9BB2002B66
:1048F000C6D1FA693968F86800F0C4FB0346002B9A
:1049000002D0FB6820225A65FB689B68002B0AD105
:1049100000237B61FB681B68DB687B61FB681B68AD
:104920009B687B617B69FB68012283F85120FB68EF
:10493000002283F85020FB685B6D002B01D001231F
:1049400000E0002318462037BD4680BD80B588B002
:1049500002AFF860B9603B601346FB80FB6893F8D8
:104960005130DBB2012B01D0022304E1FB685B680C
:10497000B3F5827F12D1FB689B68002B0ED1FB68D8
:10498000042283F85120FA883B6800931346BA68E2
:10499000B968F86800F0F3F80346ECE0FEF782FF30
:1049A0007861BB68002B02D0FB88002B01D101236A
:1049B000E1E0FB6893F85030012B01D10223DAE0EB
:1049C000FB68012283F85020FB68042283F8512001
:1049D000FB6800225A65FB68BA689A63FB68FA882C
:1049E0009A87FB68FA88DA87FB6800221A63FB68FB
:1049F00000229A86FB680022DA86FB6800221A648D
:104A0000FB6800225A64FB689B68B3F5004F0FD126
:104A1000FB681B681A68FB681B6822F040021A607A
:104A2000FB681B681A68FB681B6822F480421A60E6
:104A3000FB681B681B6803F04003402B07D0FB6832
:104A40001B681A68FB681B6842F040021A60FB682A
:104A5000DB68002B70D135E0FB681B689B6803F0B6
:104A60000103012B15D1FB681B6803F10C02FB68E5
:104A70009B6B1278D2B21A70FB689B6B5A1CFB6856
:104A80009A63FB68DB8F9BB2013B9AB2FB68DA87C3
:104A900018E0FEF707FF02467B69D31A3A689A428C
:104AA00003D83B68B3F1FF3F02D13B68002B09D12B
:104AB000FB68012283F85120FB68002283F8502014
:104AC000032358E0FB68DB8F9BB2002BC4D138E096
:104AD000FB681B689B6803F00103012B13D1FB6883
:104AE0001B68DA68FB689B6B92B21A80FB689B6B51
:104AF0009A1CFB689A63FB68DB8F9BB2013B9AB2FE
:104B0000FB68DA8718E0FEF7CDFE02467B69D31A10
:104B10003A689A4203D83B68B3F1FF3F02D13B6841
:104B2000002B09D1FB68012283F85120FB68002289
:104B300083F8502003231EE0FB68DB8F9BB2002B21
:104B4000C6D17A693968F86800F04AFA0346002B42
:104B500002D0FB6820225A65FB68012283F85120AD
:104B6000FB68002283F85020FB685B6D002B01D0AE
:104B7000012300E0002318461837BD4680BD80B5EC
:104B80008AB000AFF860B9607A607B8001237B62F5
:104B9000FEF788FE3862FB6893F85130FB77FB68BC
:104BA0005B68BB617B88FB82FB7F012B0CD0BB6900
:104BB000B3F5827F06D1FB689B68002B02D1FB7F97
:104BC000042B01D002237FE1BB68002B05D07B685A
:104BD000002B02D07B88002B01D1012374E1FB68FC
:104BE00093F85030012B01D102236DE1FB680122C3
:104BF00083F85020FB6893F85130DBB2042B03D0CC
:104C0000FB68052283F85120FB6800225A65FB6887
:104C10007A689A63FB687A88DA87FB687A889A8769
:104C2000FB68BA681A63FB687A88DA86FB687A8858
:104C30009A86FB6800221A64FB6800225A64FB68AB
:104C40001B681B6803F04003402B07D0FB681B6800
:104C50001A68FB681B6842F040021A60FB68DB6858
:104C6000B3F5006F7ED1FB685B68002B02D0FB8A36
:104C7000012B6CD1FB681B6B1A88FB681B68DA6020
:104C8000FB681B6B9A1CFB681A63FB68DB8E9BB28C
:104C9000013B9AB2FB68DA8659E0FB681B689B68A7
:104CA00003F00203022B1BD1FB68DB8E9BB2002BAF
:104CB00016D07B6A012B13D1FB681B6B1A88FB682B
:104CC0001B68DA60FB681B6B9A1CFB681A63FB6845
:104CD000DB8E9BB2013B9AB2FB68DA8600237B62D3
:104CE000FB681B689B6803F00103012B19D1FB686B
:104CF000DB8F9BB2002B14D0FB681B68DA68FB6863
:104D00009B6B92B21A80FB689B6B9A1CFB689A6340
:104D1000FB68DB8F9BB2013B9AB2FB68DA87012309
:104D20007B62FEF7BFFD02463B6AD31A3A6B9A429A
:104D30000DD83B6BB3F1FF3F09D0FB68012283F82C
:104D40005120FB68002283F850200323BCE0FB685D
:104D5000DB8E9BB2002BA0D1FB68DB8F9BB2002BBC
:104D60009BD182E0FB685B68002B02D0FB8A012BA1
:104D700071D1FB681A6BFB681B680C3312781A70D0
:104D8000FB681B6B5A1CFB681A63FB68DB8E9BB2CB
:104D9000013B9AB2FB68DA865DE0FB681B689B68A2
:104DA00003F00203022B1CD1FB68DB8E9BB2002BAD
:104DB00017D07B6A012B14D1FB681A6BFB681B6848
:104DC0000C3312781A70FB681B6B5A1CFB681A6351
:104DD000FB68DB8E9BB2013B9AB2FB68DA8600234C
:104DE0007B62FB681B689B6803F00103012B19D1F0
:104DF000FB68DB8F9BB2002B14D0FB681B68DA6862
:104E0000FB689B6BD2B21A70FB689B6B5A1CFB68E9
:104E10009A63FB68DB8F9BB2013B9AB2FB68DA872F
:104E200001237B62FEF73EFD02463B6AD31A3A6BD2
:104E30009A4203D83B6BB3F1FF3F02D13B6B002B8F
:104E400009D1FB68012283F85120FB68002283F816
:104E50005020032338E0FB68DB8E9BB2002B9CD1F3
:104E6000FB68DB8F9BB2002B97D13A6A396BF868ED
:104E700000F008F90346002B08D0FB6820225A6591
:104E8000FB68002283F8502001231DE0FB689B682B
:104E9000002B0AD100233B61FB681B68DB683B6188
:104EA000FB681B689B683B613B69FB68012283F8D8
:104EB0005120FB68002283F85020FB685B6D002BBB
:104EC00001D0012300E0002318462837BD4680BDED
:104ED00080B588B000AFF860B9603B601346FB71E5
:104EE000FEF7E0FC0246BB6A9B1A3A681344FB617A
:104EF000FEF7D8FCB861394B1B685B011B0DFA69E2
:104F000002FB03F37B6154E03B68B3F1FF3F50D0F9
:104F1000FEF7C8FC0246BB69D31AFA699A4202D965
:104F2000FB69002B3DD1FB681B685A68FB681B6856
:104F300022F0E0025A60FB685B68B3F5827F11D112
:104F4000FB689B68B3F5004F04D0FB689B68B3F522
:104F5000806F07D1FB681B681A68FB681B6822F02A
:104F600040021A60FB689B6AB3F5005F0FD1FB68D3
:104F70001B681A68FB681B6822F400521A60FB6801
:104F80001B681A68FB681B6842F400521A60FB68D1
:104F9000012283F85120FB68002283F8502003236C
:104FA00017E07B69002B01D10023FB617B69013B8A
:104FB0007B61FB681B689A68BB681340BA689A42B9
:104FC0000CBF01230023DBB21A46FB799A429BD126
:104FD000002318462037BD4680BD00BF00000020DA
:104FE00080B586B002AFF860B9607A60FB685B6834
:104FF000B3F5827F11D1FB689B68B3F5004F04D0F5
:10500000FB689B68B3F5806F07D1FB681B681A6863
:10501000FB681B6822F040021A60FB685B68B3F50E
:10502000827F17D1FB689B68B3F5806F12D17B68D4
:105030000093BB6800220121F868FFF749FF03468F
:10504000002B1AD0FB685B6D43F02002FB685A65A9
:10505000032313E07B680093BB6800228021F8687B
:10506000FFF736FF0346002B07D0FB685B6D43F06C
:105070002002FB685A65032300E00023184610371E
:10508000BD4680BD80B586B002AFF860B9607A6079
:105090007B680093BB6801220221F868FFF718FFC4
:1050A0000346002B07D0FB685B6D43F02002FB68D2
:1050B0005A65032313E07B680093BB6800228021BC
:1050C000F868FFF705FF0346002B07D0FB685B6D10
:1050D00043F02002FB685A65032300E000231846D2
:1050E0001037BD4680BD002B2DE9F0471D46BBBFE4
:1050F00003F100431D4600232D2388B01446B8BF9A
:105100001446129A109E1370149BDDF84CA023F0E5
:105110002008B8F1460F05D0B8F1450F00D101368F
:10512000022300E0032307AA049206AACDE902A203
:10513000CDE9003622462B4600F06EFEB8F1470F4F
:10514000074619D1119BDB070ED500EB060900229B
:10515000002320462946FBF727FC08B1CDF81C9018
:105160003022079B4B451ED33846079B159ADB1B05
:10517000136008B0BDE8F087B8F1460F00EB0609F0
:10518000E5D10378302B0AD100220023204629469E
:10519000FBF70AFC18B9C6F10106CAF80060DAF894
:1051A00000309944D3E7591C07911A70D9E7F7B535
:1051B0000029B6BF2D232B234942092902704370D1
:1051C00029DD0DF107031D460A27B1FBF7F61A4644
:1051D00007FB1614303402F8014C0C46632C3146A0
:1051E00003F1FF33F1DC3031941E03F8011C234638
:1051F000411CAB420AD30DF109039B1AAC4288BF94
:10520000002302330344181A03B0F0BD13F8016BF6
:1052100001F8016FEDE7302330318370C170031D59
:10522000F1E700002DE9F04F91B00C46DDF8688001
:1052300016461F46054600F0E1FC03681846089331
:10524000FAF786FF00230E93D8F800300990073351
:1052500023F0070303F1080294F818A0D4F800B073
:10526000C8F80020D3E9008929F000430B93CDF85A
:1052700028804FF0FF32DDE90A01C4E912899C4B16
:10528000FBF7C4FB70BBDDE90A014FF0FF32984B1E
:10529000FBF79EFB30BB0022002340464946FBF74C
:1052A0008DFB10B12D2384F84330924A924BBAF112
:1052B000470F8CBF9046984603234FF000092361A7
:1052C0002BF00403236033462146284600970FAA9B
:1052D00000F0D4F9013040F090804FF0FF3011B071
:1052E000BDE8F08F42464B4640464946FBF78EFBF1
:1052F00048B14B46002BB8BF2D23804AB8BF84F875
:1053000043307F4BD3E763680AF0DF015A1C3FD17B
:105310000623636000224BF48063236006920EAA8A
:10532000CDE904A20DAA03920DF13302CDE90132B9
:1053300063684246009328464B460A91FFF7D3FE26
:105340000A99804647290D9928D1C81C02DB636859
:10535000994240DDAAF1020A5FFA8AFA52460139FF
:1053600004F150000D91FFF722FF0E9A81461318A9
:10537000012A236102DC2268D20701D501332361AF
:105380009DF83330002B9ED02D2384F843309AE7CC
:105390004729BFD1002BBDD10123BAE7BAF1650F70
:1053A000DCD9BAF1660F18D1002963680BDD2161E1
:1053B00013B92268D00702D501330B4423614FF0A3
:1053C0000009A165DCE713B92268D20701D50233D1
:1053D000F4E70123F2E74FF0670A0E9B994205DBE1
:1053E00023682161D807EAD54B1CE7E70029CCBF29
:1053F0000122C1F102021344E0E723685A0507D4F1
:105400002369424631462846B84701302BD164E72C
:10541000BAF1650F40F2DC80D4E9120100220023CA
:10542000FBF7C2FA002833D0012331462846354A1B
:10543000B84701303FF451AFDDE90D38434502DB99
:105440002368D8070FD5DDE9082331462846B84739
:1054500001303FF442AF4FF0000908F1FF3804F18A
:105460001A0AC84509DC23689B0700F10281E0683D
:105470000F9B9842B8BF184631E701235246314688
:105480002846B84701303FF428AF09F10109E8E7A1
:105490000D9B002B38DC012331462846194AB847BA
:1054A00001303FF41AAFDDE90D3959EA030302D1A7
:1054B0002368D907D7D5DDE9082331462846B84700
:1054C00001303FF40AAF4FF0000A04F11A0B0D9BB4
:1054D0005B42534501DC4B4693E701235A46314674
:1054E0002846B84701303FF4F8AE0AF1010AEEE76A
:1054F000FFFFEF7FAA7F0008A67F0008B27F0008A9
:10550000AE7F0008B67F0008A36DDDF838A05345D4
:10551000A8BF5346002B994636DC4FF0000B29EA12
:10552000E97904F11A02A36D0A93A3EB09035B4521
:1055300031DC0D9B9A453ADC2368DA0737D40D9BA2
:10554000AAEB03090A9BAAEB03039945A8BF994656
:10555000B9F1000F33DC4FF0000829EAE97904F1D2
:105560001A0B0D9BAAEB0303A3EB090343457FF73B
:105570007AAF01235A4631462846B84701303FF4F6
:10558000ACAE08F10108ECE7424631462846B84780
:105590000130C2D1A1E60123314628460A92B8471C
:1055A00001303FF49AAE0A9A0BF1010BBBE731468A
:1055B000DDE908232846B8470130C0D18DE60A9AB4
:1055C0004B46314628464244B8470130C3D184E6B1
:1055D000DDF838A0BAF1010F01DCDB0736D5012375
:1055E000424631462846B84701303FF476AEDDE901
:1055F000082331462846B84701303FF46EAED4E95F
:105600001201002200230AF1FF3AFBF7CDF9C0B9DD
:10561000534608F1010231462846B84701300CD103
:105620005BE601235A4631462846B84701303FF42D
:1056300054AE08F10108D045F3DB4B4604F15002AB
:10564000E0E64FF0000804F11A0BF4E701234246AC
:10565000E1E701234A4631462846B84701303FF486
:105660003CAE08F10108E3680F995B1A4345F0DC92
:10567000FDE64FF0000804F11909F4E72DE9F047C1
:10568000164698468A680B6907469342B8BF134688
:10569000336091F843200C46DDF820900AB10133C5
:1056A00033602368990642BF33680233336025684C
:1056B00015F0060506D104F1190AE36832689B1A51
:1056C000AB422BDC94F843302268003B18BF012327
:1056D000920630D44146384604F14302C8470130AF
:1056E00023D02368226903F00603042B14BF00258E
:1056F00033684FF0000608BFE56804F11A0408BFDC
:10570000ED1A54F8123C08BF25EAE5759342C4BF70
:105710009B1AED18B5421AD1002008E00123524629
:1057200041463846C847013003D14FF0FF30BDE84D
:10573000F0870135C1E73020E11881F843005A1C99
:1057400094F845102244023382F84310C2E7012343
:10575000224641463846C8470130E6D00136D9E7EF
:105760002DE9FF470F7E9146782F80460C469A46DA
:105770000C9E01F1430207D8622F0AD8002F00F0D7
:10578000D180582F00F0B88004F1420684F84270AE
:105790003AE0A7F16303152BF6D801A151F823F0E5
:1057A000F95700080D580008895700088957000864
:1057B00089570008895700080D58000889570008C4
:1057C0008957000889570008895700080B590008B5
:1057D00037580008C558000889570008895700083D
:1057E0002D590008895700083758000889570008C4
:1057F00089570008CD58000833681A1D1B683260AD
:1058000004F1420684F8423001239CE033682068AA
:10581000191D3160060601D51D6803E04506FBD55C
:10582000B3F90050002D03DA2D236D4284F8433084
:105830000A23584811E021683368080653F8045BCE
:1058400002D4490648BFADB26F2F336014BF0A239C
:1058500008235048002184F843106668002EA66093
:1058600005DB21682E4321F0040121604BD0164650
:10587000B5FBF3F103FB1157C75D06F8017D2F4619
:10588000BB420D46F4D9082B0BD12368DF0708D59E
:10589000236961689942DEBF302306F8013C06F1B6
:1058A000FF36921B22614B4621464046CDF800A0B0
:1058B00003AAFFF7E3FE01304AD14FF0FF3004B0F6
:1058C000BDE8F087236843F020032360782732483F
:1058D00084F84570236831681F0651F8045B02D4D0
:1058E0005F0648BFADB23160D90744BF43F0200323
:1058F00023601DB11023ADE72648E9E7236823F0B4
:1059000020032360F6E71646BDE733682568181DB7
:10591000616930602E061B6801D5196002E06806D7
:10592000FBD51980002316462361BCE733680021AC
:105930001A1D32601E686268304600F0D6F908B160
:10594000801B606063682361002384F84330AAE70A
:105950003246494640462369D0470130ADD02368DE
:105960009B0713D4E068039B9842B8BF1846A6E78C
:105970000123324649464046D04701309DD001358B
:10598000E36803995B1AAB42F2DCEBE7002504F114
:105990001906F5E7B87F0008C97F0008002310B595
:1059A0000446C0E90033C0E9043383608181436663
:1059B000C2818361194608225C3000F016F90D4B54
:1059C000246263620C4BA3620C4BE3620C4B2363B7
:1059D0000C4B9C4206D003F16802944202D0D033B3
:1059E0009C4205D104F15800BDE8104000F07AB99E
:1059F00010BD00BF655B0008875B0008BF5B000847
:105A0000E35B000804040020024A0349034800F055
:105A100069B800BF0C000020617600081C0000205F
:105A200041680C4B10B59942044601D001F018FEB4
:105A3000A168094B994202D0204601F011FEE168AD
:105A4000064B994204D02046BDE8104001F008BE44
:105A500010BD00BF040400206C040020D40400200A
:105A600010B50B4B0B4C0C4A20461A600421002247
:105A7000FFF794FF04F1680001220921FFF78EFF70
:105A800004F1D0000222BDE810401221FFF786BFCA
:105A90003C05002004040020095A0008014800F0D9
:105AA00022B900BF45050020014800F01DB900BF24
:105AB0004505002010B50446FFF7F0FF236A1BB12F
:105AC000BDE81040FFF7F0BF044B2362044B1B6896
:105AD000002BF5D1FFF7C4FFF2E700BF215A000801
